:060000000A128A11122809
:10000800FE00030E83120313C1000408C2000A088D
:10001800C3007F08C4000A128A111F2B0A128A1112
:1000280015288317D230FD000530FE00AD30FF00E3
:10003800903084000A128A1587270A128A118316BB
:100048000313CD01CE01CF01D001831345308400C5
:1000580059300A128A11F8270A128A1183010A12E2
:100068008A11892A83160313B900AF30B400FD281A
:1000780025303A060319412842284C2839088400BB
:100088003A08831380000130B1003108B907FD2810
:10009800B5010130AE07FF302E0784000A128A111D
:1000A800A7230A128A11BA00B100B2013208003A35
:1000B80003195F28FD283108003A03190D29643A0D
:1000C80003196A280D3A03196A28FD2834088400A0
:1000D80083130008B700840A0008B8000230B10092
:1000E8003108B407B81F79287A2883280330B1006B
:1000F8003108B504B709B809B70A0319B80ABA012B
:10010800BA0A3A08B1003107013E84000A128A117E
:10011800A7230A128A11B2000A128A11A7230A1207
:100128008A11B30033083802031D9C2832083702AD
:1001380003189F28A028A128AB280130B100310856
:10014800BA0705303A06031DAA28AB2885283508C2
:1001580003390319B028B128BA28390884002D308A
:10016800831380000130B1003108B9073A08B6009E
:10017800F4280A30A8000030A9003608B100310779
:10018800013E84000A128A11A7230A128A11A000CC
:100198000A128A11A7230A128A11A1003808A3009B
:1001A8003708A2000A128A11DF240A128A1183165C
:1001B80003132108AB002008AA000A128A11F026AE
:1001C8000A128A11831603132808303EBA00390828
:1001D80084003A08831380000130B1003108B90760
:1001E800FF30B1003108B607360A031DFC28FD2888
:1001F800BD280130AE07FF302E0784000A128A118D
:10020800A7230A128A11BA003A08031D0C290D29DE
:100218003C283908840083138001080083120313E3
:10022800AB002130A600D72925302C0603191D293B
:100238001E2928292B0884002C08831380000130EC
:10024800A3002308AB07D729A7010130A007FF3077
:10025800200784000A128A11A7230A128A11AC0007
:10026800A300A4012408003A03193B29D72923082D
:10027800003A0319E729643A031946290D3A031984
:100288004629D7292608840083130008A900840A70
:100298000008AA000230A3002308A607AA1F5529B0
:1002A80056295F290330A3002308A704A909AA092E
:1002B800A90A0319AA0AAC01AC0A2C08A30023074F
:1002C800013E84000A128A11A7230A128A11A40087
:1002D8000A128A11A7230A128A11A50025082A02E0
:1002E800031D78292408290203187B297C297D29E4
:1002F80087290130A3002308AC0705302C06031D0D
:100308008629872961292708033903198C298D290A
:1003180096292B0884002D30831380000130A30018
:100328002308AB072C08A800CE290A30F8000030B3
:10033800F9002808A3002307013E84000A128A1145
:10034800A7230A128A11F0000A128A11A7230A1297
:100358008A11F1002A08F3002908F2000A128A110A
:1003680069250A128A117108FB007008FA000A123E
:100378008A112C270A128A117808303E8312031337
:10038800AC002B0884002C08831380000130A300E4
:100398002308AB07FF30A3002308A807280A031D7A
:1003A800D629D72999290130A007FF3020078400D2
:1003B8000A128A11A7230A128A11AC002C08031DFD
:1003C800E629E72918292B088400831380010800EF
:1003D80083160313B701B01FF229F329002AAD09C8
:1003E800AE09AF09B009AD0A0319AE0A0319AF0A7D
:1003F8000319B00AB701B70AB41F032A042A132A3B
:10040800B109B209B309B409B10A0319B20A031947
:10041800B30A0319B40A0130B5003508B70600302D
:10042800BB000030BA000030B9000030B800300816
:100438002F042E042D040319222A232A702AB60118
:10044800B60A332A0130B5000310AD0DAE0DAF0D5D
:10045800B00DB50B282A0130B5003508B607B01F16
:10046800362A372A262A0130B5000310B80DB90DEF
:10047800BA0DBB0DB50B392A30083402031D4E2ABC
:100488002F083302031D4E2A2E083202031D4E2A5E
:100498002D083102031C512A522A612A2D08B10263
:1004A8002E08031C2E0FB2022F08031C2F0FB302B5
:1004B8003008031C300FB402381401300310B00C9C
:1004C800AF0CAE0CAD0CFF3E031D622A0130B60224
:1004D800031D6F2A702A372A37080319742A752AC8
:1004E800802AB809B909BA09BB09B80A0319B90AAF
:1004F8000319BA0A0319BB0A3B08B0003A08AF004F
:100508003908AE003808AD0008000A128A116627BB
:100518000A128A110A128A11FB230A128A110A1274
:100528008A1576270A128A110A128A1171260A1266
:100538008A1183160313A401A40A01300A128A112E
:10054800D6270A128A11413083160313A40080307B
:10055800A5000A128A119E270A128A11831603130C
:10056800A401A40A02300A128A11D6270A128A1193
:100578004A3083160313A4000030A5000A128A111A
:100588009E270A128A11083083160313A40001302B
:100598000A128A11D6270A128A11463083160313C3
:1005A800A4008030A5000A128A119E270A128A1117
:1005B800093083160313A40002300A128A11D627C1
:1005C8000A128A1183120313490883160313CA00F7
:1005D800CB014A08A4004B08A5000A128A119E27DD
:1005E8000A128A11831203139F18FB2AFC2A092B6B
:1005F800033083160313CB009730CA00CA0B022BB3
:10060800CB0B022B831203139F148C1A0C2B0D2B6C
:10061800982A063083160313CC001330CB00AD3074
:10062800CA00CA0B152BCB0B152BCC0B152B982AF4
:100638000A128A1112288C1E222B232B7E2B1A08B1
:10064800BF00C0013F08C7004008C800712B0B302D
:10065800F0008030F1000A128A11EF250A128A117F
:100668004A30F0000030F1000A128A11EF250A1210
:100678008A119030F0000130F1000A128A11EF253A
:100688000A128A117E2B0A128A15D4270A128A1195
:1006980083120313C90020301A06031D542B552B4F
:1006A800472B9030F0000130F1000A128A11EF2533
:1006B8000A128A117E2B2A30F0008030F1000A12CB
:1006C8008A11EF250A128A112030831203131A06A1
:1006D800031D6F2B702B682B552B4808003A031904
:1006E800762B5F2B4708313A03192B2B033A031952
:1006F8004F2B5F2B831203130C1F832B842B922BFE
:100708000A128A156C270A128A11710883160313B4
:10071800D0007008CF00831203130C134408FF00A5
:1007280043088A0042088400410E8300FE0E7E0EB4
:100738000900FF1BA72B83137F1883170008840A5F
:100748000319FF0A080003308A000408840A820794
:100758000034013400340A34003464340034E8349A
:1007680003341034273445346C34203476346134FF
:100778006C346F3472342034643465346C3420340F
:1007880070346F34743465346E34633469346F3460
:100798006D346534743472346F3420346534733492
:1007A8003A3400344E346F34203465347834693444
:1007B80073347434653420346534733461342034CC
:1007C8006F347034633469346F346E3420340D34CC
:1007D800003456346F346C347434003443346F341A
:1007E8006E3474340034253464340D3400340030ED
:1007F8000A128A1564270A128A11343083160313E1
:10080800A500F130A400A40B072CA50B072C303051
:100818000A128A15B4270A128A110D308316031397
:10082800A500FB30A400A40B172CA50B172C303007
:100838000A128A15B4270A128A111D308316031367
:10084800A5009030A400A40B272CA50B272C000092
:1008580030300A128A15B4270A128A113C300A125B
:100868008A15B4270A128A110C300A128A15B4277D
:100878000A128A1101300A128A15B4270A128A113B
:1008880006300A128A15B4270A128A11080083163C
:1008980003133E084002AD003F08031C3F0A410213
:1008A800AE00AF01AE1BAF032F08B0003E083C02FC
:1008B800A0003F08031C3F0A3D02A100A201A11BA2
:1008C800A2032208A30042084402A4004308031C10
:1008D800430A4502A500A601A51BA6032608A700F2
:1008E8000A128A1197240A128A11831603132308FD
:1008F800B4002208B3002108B2002008B1000A128F
:100908008A11EC210A128A118316031342082D0753
:10091800C60043080318430A2E07C7004708BD004E
:100928004608BC000800003083160313AC000030F2
:10093800AB000030AA000030A900201CA42CA52C74
:10094800BC2C2408A907250803110318013E031924
:10095800AE2CAA07260803110318013E0319B52C6B
:10096800AB07270803110318013E0319BC2CAC0779
:100978000130A8000310A40DA50DA60DA70DA80B06
:10098800BE2C01300310A30CA20CA10CA00CFF3E3E
:10099800031DC62C2308220421042004031DD52C82
:1009A800D62CA12C2C08A3002B08A2002A08A100F1
:1009B8002908A000080083160313A601A701200830
:1009C80021040319E82CE92C202DA501A50AF72CF0
:1009D80001300310A00DA10DFF3E031DED2C0130C9
:1009E800A4002408A507A11FFA2CFB2CEC2C01302D
:1009F8000310A60DA70DFF3E031DFC2C21082302A2
:100A0800031D082D20082202031C0B2D0C2D132D6D
:100A18002008A2022108031CA303A3022614013004
:100A28000310A10CA00CFF3E031D142D0130A502DC
:100A3800031D1F2D202DFB2C2708A1002608A00030
:100A48000800831603139A0183160317871183126C
:100A58000313181698171813831603138C1683128A
:100A680003138C12B03083160313200604300319C5
:100A78002106031D402D412D442D67309900682D16
:100A880060302006093003192106031D4C2D4D2D19
:100A9800502D33309900682D8030200625300319F9
:100AA8002106031D582D592D5C2D0C309900682DF9
:100AB800B1302006283003192106031D642D652D49
:100AC800682D0B309900682D0800F501F6017008B3
:100AD80071040319702D712DA82DF701F70A7F2DC8
:100AE80001300310F00DF10DFF3E031D752D01308F
:100AF800F4007408F707F11F822D832D742D01303F
:100B08000310F50DF60DFF3E031D842D71087302C9
:100B1800031D902D70087202031C932D942D9B2D9C
:100B28007008F2027108031CF303F3027514013014
:100B38000310F10CF00CFF3E031D9C2D0130F70251
:100B4800031DA72DA82D832D7608F1007508F00048
:100B580008004D3465346E3475343A3420340D341D
:100B68002034313429344C346534653472342034BB
:100B780070346F34743465346E34633469346F346C
:100B88006D346534743472346F3420340D34203449
:100B98003234293449346E346334723465346D34F4
:100BA80065346E347434613472342F34643465348B
:100BB8006334723465346D3465346E34743461343E
:100BC80072342034703475346534723474346F344C
:100BD80020340D340034F501F601142E0C1EF52DC9
:100BE800F62DF22D75087007F3007108F20003184E
:100BF800F20AF51F002EF2037208F400740883123B
:100C08000313FF00730884000A128A119D230A1235
:100C18008A1199000130F5070318F60A0030F60723
:100C280075087007F3007108F2000318F20AF51F3F
:100C38001E2EF2037208F400740883120313FF00D7
:100C4800730884000A128A119D230A128A11003A35
:100C5800031D2F2E302EF22D0800831603131811B2
:100C68008316031787118316031318129816831215
:100C780003130C12B0308316031320060430031933
:100C88002106031D482E492E4C2E67309900702EE0
:100C980060302006093003192106031D542E552EF5
:100CA800582E33309900702E8030200625300319D5
:100CB8002106031D602E612E642E0C309900702EC3
:100CC800B1302006283003192106031D6C2E6D2E25
:100CD800702E0B309900702E0800831203131F1416
:100CE8001A3083160313C900F730C800C80B7A2ED0
:100CF800C90B7A2E7F2E831203139F1483160313B6
:100D08005008BD004F08BC000030BE00BF00FF30D7
:100D1800C0000030C1000030C200C3000530C4006C
:100D28000030C5000A128A114B240A128A11831650
:100D380003133D08CE003C08CD004B30AE004E08F2
:100D4800B0004D08AF004A300A128A1136200A1244
:100D58008A11831203131F10080083160313210836
:100D6800803AFF0080307F02031DBC2E0E30200227
:100D78000318BF2EC02ED22E831603132008A200FC
:100D8800A20DA20D831203131F0883160313220654
:100D9800C3392206831203139F00D62EC330831251
:100DA80003139F05831603131F129F128312031345
:100DB8001F083F3980389F00831603139F1383123F
:100DC80003131F140C130B17831603130C178B171D
:100DD800831203139F140800831603132808290499
:100DE8000319F72EF82E272FAD01AD0A062F013073
:100DF8000310A80DA90DFF3E031DFC2E0130AC0009
:100E08002C08AD07A91F092F0A2FFB2E29082B0232
:100E1800031D102F28082A02031C132F142F1A2F22
:100E28002808AA022908031CAB03AB0201300310EF
:100E3800A90CA80CFF3E031D1B2F0130AD02031D9A
:100E4800262F272F0A2F2B08A9002A08A8000800F8
:100E5800780879040319312F322F612FFD01FD0A1B
:100E6800402F01300310F80DF90DFF3E031D362FFA
:100E78000130FC007C08FD07F91F432F442F352F54
:100E880079087B02031D4A2F78087A02031C4D2F2C
:100E98004E2F542F7808FA027908031CFB03FB0233
:100EA80001300310F90CF80CFF3E031D552F0130DB
:100EB800FD02031D602F612F442F7B08F9007A087B
:100EC800F8000800003083160313A000A1000A12DE
:100ED8008A11B1260A128A11803083160313A000E2
:100EE8002530A1000A128A1125250A128A1180309C
:100EF80083160313A0002530A1000A128A11312697
:100F08000A128A118316031708148901FF30831601
:100F180003138500C03087008601880183120313FC
:100F280085018601870188018901703083160313C2
:100F38008F04080083160313A601A701C12F831687
:100F4800031326082407840027080318270A2507FF
:100F580083120313FF000A128A119D230A128A11B1
:100F68000A128A1596270A128A110130831603136A
:100F7800A6070318A70A0030A70726082407840035
:100F880027080318270A250783120313FF000A12EC
:100F98008A119D230A128A11003A031DD42FD52FD6
:100FA800A32F080083160313A5002503031DDD2FB7
:100FB800DE2FE82F24087F3EA60026080A128A158D
:100FC800B4270A128A11F72F02302506031DED2FC8
:100FD800EE2FF72F2408BF3EA60026080A128A150E
:100FE800B4270A128A11080064008001840A0406E2
:080FF800031900340406F92F6F
:101EC80083160313A0002008831203138800080058
:101ED800831203131E08F200F3017208F00073085E
:101EE800F100080000300A128A15B4270A128A1570
:101EF80001300A128A15B4270A128A1508007E08CA
:101F08008A007F0882000A128A1583270A128A1516
:101F18008000840A04087D0603190034FF0A0319A7
:101F2800FE0A872F83160313A3002308A200831237
:101F3800031307148316031322080A128A15642749
:101F48000A128A1583120313871419308316031390
:101F5800A100A10BAD2FB02F831203138710080027
:101F680083160313A30083120313071083160313A6
:101F780023080A128A1564270A128A158312031382
:101F880087140B3083160313A2006130A100A10B44
:101F9800CB2FA20BCB2FD02F83120313871008004F
:101FA800831203138C1ED92FDA2FD42F1A08BE00E0
:101FB8002B303E06031DE12FE22FE72F0130AD0045
:101FC8002D088607EF2F2D303E06031DEC2FED2F31
:101FD800EF2F013086024B30A0000608AD00AE019D
:101FE8002D08A1002E08A2002F300A128A111221F2
:081FF8000A128A152F300800BF
:08400000FF3FFF3FFF3FFF3FC0
:04400E00D420FF3F7C
:00000001FF
