:060000000A128A110C280F
:10000800FE00030EF4000A08F5000A168A159B295B
:100018000A128A110F28F601F7018313D7308400DA
:10002800EA300A168A1572210A128A1183010A1601
:100038008A15D32C83160313C700B130BE00B12F25
:1000480025305206031929282A283428470884000D
:100058005208831380000130B5003508C707B12F57
:10006800BF01C001300884000A168A150A200A1246
:100078008A112E3A031D412842289528401701303D
:10008800B5003508B007CC01CD0184280A308312A9
:100098000313A0000030A100831603134D08831238
:1000A8000313A300831603134C0883120313A2003F
:1000B8000A168A152D220A128A118312031321089F
:1000C80083160313CD00831203132008831603132A
:1000D800CC00300884000A168A150A200A128A11F0
:1000E800D03EB500FF3003180030B6003508CC0705
:1000F8000318CD0A3608CD070130B5003508B0071A
:10010800300884000A168A150A200A128A110A166B
:100118008A1587210A128A110318932894284A28D5
:100128009B28CC01CD0140169B284015B7280130EB
:1001380083160313B007FF30300784000A168A15A8
:100148000A200A128A11D200B500B6013608003A10
:100158000319AF28B12F3508003A0319C12F663AA1
:1001680003199928B12F00303F05B5000730400525
:10017800B600350836040319C228C3286E2F401E5E
:10018800C628C728CB280630CC000030CD003E0852
:10019800840083130008CE00840A0008CF00840A74
:1001A8000008D000840A0008D1000430B5003508E2
:1001B800BE07510883120313A300831603135008C4
:1001C80083120313A200831603134F088312031329
:1001D800A100831603134E0883120313A0000030F6
:1001E800A7000030A6000030A5000030A4000A16C1
:1001F8008A15ED250A128A110318032904293D29B5
:1002080083160313510883120313A30083160313E1
:10021800500883120313A200831603134F08831296
:100228000313A100831603134E0883120313A000BF
:100238000A168A1106200A128A1183120313230848
:1002480083160313D10083120313220883160313A2
:10025800D00083120313210883160313CF008312DF
:100268000313200883160313CE000330BF040030A5
:10027800C00483160313C501C60151088312031372
:10028800A30083160313500883120313A2008316D6
:1002980003134F0883120313A100831603134E0898
:1002A80083120313A0000030A7000030A60000301E
:1002B800A5000030A4000A168A15DD230A128A1147
:1002C800031867296829942A031083160313500D0D
:1002D800510D823EC500FF3003180030C600FF30C4
:1002E800C5070318C60AFF30C60703308312031375
:1002F800A0000030A10083160313460883120313DD
:10030800A30083160313450883120313A2000A16D9
:100318008A152D220A128A118312031321088316C3
:100328000313C60083120313200883160313C500A2
:100338000A3083120313A7000030A80083160313A2
:10034800460883120313AA00831603134508831271
:100358000313A9000A168A1113200A128A1183129C
:100368000313280883160313C600831203132708F0
:1003780083160313C500C61FC229C329C929FF3024
:10038800C5070318C60AFF30C6074503FF3A0A1215
:100398008A159D240A128A11831203134D088316A5
:1003A8000313CB00831203134C0883160313CA00EC
:1003B800831203134B0883160313C9008312031314
:1003C8004A0883160313C800510883120313B300A5
:1003D80083160313500883120313B2008316031302
:1003E8004F0883120313B100831603134E088312B8
:1003F8000313B000831603134B0883120313B700CB
:10040800831603134A0883120313B60083160313D3
:10041800490883120313B50083160313480883128F
:100428000313B4000A128A1558210A128A1183127A
:100438000313330883160313CB0083120313320804
:1004480083160313CA008312031331088316031398
:10045800C90083120313300883160313C8004B081E
:1004680083120313A300831603134A08831203138A
:10047800A20083160313490883120313A1008316ED
:100488000313480883120313A0003F30A7008030ED
:10049800A6000030A5000030A4000A168A15ED2534
:1004A8000A128A110318592A5A2A632AFF30831616
:1004B8000313C5070318C60AFF30C607942A831614
:1004C80003134B0883120313A300831603134A086C
:1004D80083120313A200831603134908831203131C
:1004E800A10083160313480883120313A0004130A8
:1004F800A7002030A6000030A5000030A4000A168E
:100508008A15ED250A128A11031C8B2A8C2A942A33
:10051800013083160313C5070318C60A0030C6073F
:10052800831603134D08803AFF0080307F02031DB5
:100538009F2A0D304C020318A22AA32AEA2A8316FE
:1005480003134C080A168A1109230A128A11831206
:1005580003134D08E7004C08E6004B08E5004A087D
:10056800E40083160313510883120313EB00831668
:100578000313500883120313EA00831603134F086A
:1005880083120313E900831603134E08831203131F
:10059800E8000A168A1116250A128A118312031313
:1005A800670883160313D1008312031366088316A2
:1005B8000313D00083120313650883160313CF00B7
:1005C80083120313640883160313CE0083160313E0
:1005D8004608803AFF0080307F02031DF52A0A3062
:1005E80045020318F82AF92A582B831603135108D1
:1005F80083120313A30083160313500883120313F3
:10060800A200831603134F0883120313A100831655
:1006180003134E0883120313A0000030A700003014
:10062800A6000030A5000030A4000A168A15DD23B4
:100638000A128A110318212B222B042C8316031368
:10064800510883120313E000831603135008831222
:100658000313DF00831603134F0883120313DE000E
:10066800831603134E0883120313DD000A128A153A
:100678000C200A128A118312031360085F045E04B7
:100688005D04031D482B492B042C831603134608CD
:10069800803AFF0080307F02031D542B0230450250
:1006A800031C572B582B042C831603134B08831257
:1006B8000313A300831603134A0883120313A2002B
:1006C80083160313490883120313A1008316031327
:1006D800480883120313A0004030A7008930A60001
:1006E8007030A5005F30A4000A168A15ED250A129D
:1006F8008A110318802B812B8A2BF730831603135A
:10070800C5070318C60AFF30C607922BF8308316B0
:100718000313C5070318C60AFF30C60745080A129F
:100728008A159D240A128A11831203134D08831611
:100738000313CB00831203134C0883160313CA0058
:10074800831203134B0883160313C9008312031380
:100758004A0883160313C800510883120313A30021
:1007680083160313500883120313A200831603137E
:100778004F0883120313A100831603134E08831234
:100788000313A000831603134B0883120313A70057
:10079800831603134A0883120313A6008316031350
:1007A800490883120313A50083160313480883120C
:1007B8000313A4000A168A1548270A128A118312FD
:1007C8000313230883160313C40083120313220898
:1007D80083160313C300831203132108831603131C
:1007E800C20083120313200883160313C1000030CC
:1007F800D1000030D0000030CF000030CE00862C71
:1008080083160313510883120313E000831603139E
:10081800500883120313DF00831603134F08831253
:100828000313DE00831603134E0883120313DD003F
:100838000A128A150C200A128A11831203136008FF
:1008480083160313C400831203135F08831603136C
:10085800C300831203135E0883160313C2008312B6
:1008680003135D0883160313C1004408831203139E
:10087800A30083160313430883120313A2008316ED
:100888000313420883120313A100831603134108BC
:1008980083120313A00000300A168A117C200A1262
:1008A8008A1183120313230883160313AB008312E0
:1008B8000313220883160313AA00831203132108C3
:1008C80083160313A9008312031320088316031346
:1008D800A8005108AF005008AE004F08AD004E0800
:1008E800AC000A168A152D240A128A1183160313DE
:1008F8002B08D1002A08D0002908CF002808CE00EC
:10090800C501C601D201D20A5208B5000130031050
:10091800B50DFF3E031D8B2C0310350D693E840079
:100928000A168A150A200A128A11B6000A168A15AA
:100938000A200A128A11B7000A168A150A200A1212
:100948008A11B8000A168A150A200A128A11B900F3
:1009580039084402031DBA2C38084302031DBA2C77
:1009680037084202031DBA2C360841020318BD2C71
:10097800BE2CBF2CC92C0130B5003508D2070A306F
:100988005206031DC82CC92C882C03303F05B5001E
:1009980000304005B600350836040319D42CD52C90
:1009A800832D470884002D30831380000130B50063
:1009B8003508C707832D5208B50001300310B50D5F
:1009C800FF3E031DE22C0310350D693E84000A1614
:1009D8008A150A200A128A1183120313A0000A1624
:1009E8008A150A200A128A11A1000A168A150A20F5
:1009F8000A128A11A2000A168A150A200A128A11F6
:100A0800A30083160313440883120313A700831655
:100A18000313430883120313A60083160313420823
:100A280083120313A50083160313410883120313CB
:100A3800A4000A168A1585250A128A11831203133F
:100A4800230883160313CB0083120313220883168B
:100A58000313CA0083120313210883160313C90062
:100A680083120313200883160313C800003083126F
:100A78000313A3000030A2000030A1000A30A00038
:100A8800831603134B0883120313A700831603135B
:100A98004A0883120313A600831603134908831216
:100AA8000313A50083160313480883120313A40035
:100AB8000A168A157D240A128A1183120313230841
:100AC80083160313CB008312031322088316031320
:100AD800CA0083120313210883160313C900831263
:100AE8000313200883160313C80047088400480826
:100AF800303E831380000130B5003508C707013048
:100B0800D202520A031D892D8A2DDF2C9C2D8316B3
:100B18000313470884003030831380000130B50088
:100B28003508C707FF30C5070318C60AFF30C607D0
:100B38004608803AFF0080307F02031DA52D013052
:100B480045020318A82DA92D8B2D831603134D08D4
:100B5800803AFF0080307F02031DB42D09304C021B
:100B6800031CB72DB82DBD2D083083160313D200F2
:100B7800C12D831603134C08D2005208B500B601E4
:100B88003508CC023608031CCD03CD0252080319E0
:100B9800CE2DCF2DD82D470884002E30831380000A
:100BA8000130B5003508C70752080A128A159D2476
:100BB8000A128A11831203134D0883160313BD000A
:100BC800831203134C0883160313BC008312031308
:100BD8004B0883160313BB00831203134A088316BA
:100BE8000313BA003D0883120313B70083160313D7
:100BF8003C0883120313B600831603133B088312C1
:100C08000313B500831603133A0883120313B400C1
:100C180083160313510883120313B30083160313B7
:100C2800500883120313B200831603134F0883126C
:100C38000313B100831603134E0883120313B00085
:100C48000A128A1558210A128A11831203133308CB
:100C5800E0003208DF003108DE003008DD000A124B
:100C68008A150C200A128A1183120313600883164E
:100C78000313C400831203135F0883160313C3000E
:100C8800831203135E0883160313C200831203132F
:100C98005D0883160313C100502F5208B5000130B8
:100CA8000310B50DFF3E031D542E0310350D693E8C
:100CB80084000A168A150A200A128A11831203135D
:100CC800A0000A168A150A200A128A11A1000A161B
:100CD8008A150A200A128A11A2000A168A150A2001
:100CE8000A128A11A30083160313440883120313FC
:100CF800A70083160313430883120313A600831661
:100D08000313420883120313A50083160313410833
:100D180083120313A4000A168A1585250A128A115C
:100D280083120313230883160313CB0083120313C0
:100D3800220883160313CA0083120313210883169B
:100D48000313C90083120313200883160313C80072
:100D5800003083120313A3000030A2000030A1006A
:100D68000A30A000831603134B0883120313A7004D
:100D7800831603134A0883120313A600831603136A
:100D8800490883120313A500831603134808831226
:100D98000313A4000A168A157D240A128A118312E5
:100DA8000313230883160313CB00831203132208AB
:100DB80083160313CA00831203132108831603132F
:100DC800C90083120313200883160313C8004708B9
:100DD80084004808303E831380000130B500350890
:100DE800C7075208B50001300310B50DFF3E031DBB
:100DF800F82E0310350D693E84000A168A150A205C
:100E08000A128A1183120313A0000A168A150A20EF
:100E18000A128A11A1000A168A150A200A128A11D2
:100E2800A2000A168A150A200A128A11A30083163C
:100E38000313440883120313A700831603134308FC
:100E480083120313A60083160313420883120313A5
:100E5800A50083160313410883120313A4000A167E
:100E68008A157D240A128A11831203132308831614
:100E78000313C40083120313220883160313C30049
:100E880083120313210883160313C200831203136A
:100E9800200883160313C1000130D202520A031D31
:100EA800562F572F512E672F470884003030831351
:100EB80080000130B5003508C707FF30CC0703189C
:100EC800CD0AFF30CD074C084D04031D6C2F6D2F44
:100ED800582FB12F4C084D04031D732F742F822FE8
:100EE8004408430442044104031D7B2F7C2F822FB6
:100EF8000130CC070318CD0A0030CD074D08803AE1
:100F0800803C031D892F4C08520203188C2F8D2F0B
:100F18008E2F9D2F831603134D08803AB50080301D
:100F28003502031D992F52084C0203189C2F9D2F40
:100F38009D2F0330831603133F05B500003040058D
:100F4800B600350836040319AA2FAB2FB12F47086E
:100F580084002D30831380002F280130B007FF3024
:100F6800300784000A168A150A200A128A11D2004C
:100F78005208031DC02FC12F24284708840083135B
:100F880080010800831203132108803AFF00803093
:100F98007F02031DD12F0E3020020318D42FD52F26
:100FA800E12F831203132008A200A20DA20D1F082F
:100FB8002206C33922069F00E52FC330831203138C
:100FC8009F05831603131F129F12831203131F0812
:100FD8003F3980389F00831603139F13831203132E
:100FE8001F140C130B17831603130C178B1783127C
:060FF80003139F14080022
:10100400831203131E08F200F3017208F000730840
:10101400F10008000310831203135F0D600DE60056
:101024006608031D1628172820280030E000003029
:10103400DF000030DE000030DD0083285D08E100C1
:101044005E08E2005F08E3006008E4001F3003105C
:10105400E40CE30CE20CE10CFF3E031D29286108BB
:10106400E500DF17FF30DD05FF30DE05FF30DF056B
:101074000030E0059630E602E61F412842285C284D
:101084006608803A973E0318482849284A281728B2
:1010940001300310E00CDF0CDE0CDD0CFF3E031D01
:1010A4004B280130E1006108E607031D5A285B283C
:1010B4004A28732820306602031C612862286E289F
:1010C40017280130E1000310DD0DDE0DDF0DE00D0A
:1010D400E10B65280130E6026608031D72287328B7
:1010E400632865080319772878288328DD09DE0931
:1010F400DF09E009DD0A0319DE0A0319DF0A03190F
:10110400E00A0800831603132E0883120313A000B9
:10111400831603132F0883120313A1000030A11BAD
:10112400FF30A200A30001300A168A117C200A12A3
:101134008A15831203132308E7002208E600210816
:10114400E5002008E400831603132A082C02831206
:101154000313A000831603132B08031C2B0A2D0270
:1011640083120313A100A201A11BA2032208A3005E
:1011740001300A168A117C200A128A15831203137D
:101184002308CD002208CC002108CB002008CA0087
:10119400831603132E08300283120313A000831650
:1011A40003132F08031C2F0A310283120313A10017
:1011B400A201A11BA2032208A30001300A168A116E
:1011C4007C200A128A15831203132308B300220811
:1011D400B2002108B1002008B000831603132A08C6
:1011E400280283120313A000831603132B08031C85
:1011F4002B0A290283120313A100A201A11BA2033B
:101204002208A30001300A168A117C200A128A15CA
:10121400831203132308B7002208B6002108B5007F
:101224002008B4000A128A1558210A128A1583125A
:1012340003133308D1003208D0003108CF0030083E
:10124400CE000A168A1136210A128A158312031354
:101254004D08EB004C08EA004B08E9004A08E80096
:101264000A168A1116250A128A15831203136708AF
:1012740083160313B500831203136608831603133E
:10128400B40083120313650883160313B300831297
:101294000313640883160313B2003508AB00340843
:1012A400AA003308A9003208A80008008312031317
:1012B40033088039BD003308B8003807C300B21FB3
:1012C4006429652966294314430803196A296B298B
:1012D4007A29430A031D6F29702978290030B30045
:1012E4000030B2000030B1000030B000B2178229E3
:1012F4000030B3000030B2000030B1000030B00064
:1013040037088039B8003808BD063708B8003807F0
:10131400BE00B61F8E298F2990293E143E0803195A
:1013240094299529A4293E0A031D99299A29A229B9
:101334000030B7000030B6000030B5000030B40013
:10134400B617AC290030B7000030B6000030B50045
:101354000030B4003E080319B029B129B629430866
:10136400031DB529B629BF290030B3000030B200EF
:101374000030B1000030B0009C2C3008A0003608CA
:101384000A168A1554220A128A1583120313210895
:10139400C9002008C8004808B800B901BA01BB0157
:1013A4003B08C2003A08C1003908C0003808BF0031
:1013B4004908B800B901BA01BB013B08C7003A08A3
:1013C400C6003908C5003808C4003108A000350833
:1013D4000A168A1554220A128A1583120313210845
:1013E400C9002008C8004808B800B901BA01BB0107
:1013F4003808BF07390803110318013E0319032AEB
:10140400C0073A0803110318013E03190A2AC10749
:101414003B0803110318013E0319112AC2074908A6
:10142400B800B901BA01BB013808C407390803116F
:101434000318013E03191F2AC5073A0803110318AC
:10144400013E0319262AC6073B0803110318013E6F
:1014540003192D2AC7073208A00034080A168A1572
:1014640054220A128A15831203132108C900200882
:10147400C8004808B800B901BA01BB013808BF0761
:10148400390803110318013E0319492AC0073A0811
:1014940003110318013E0319502AC1073B08031125
:1014A4000318013E0319572AC2074908B800B901B5
:1014B400BA01BB013808C407390803110318013EF7
:1014C4000319652AC5073A0803110318013E0319D5
:1014D4006C2AC6073B0803110318013E0319732A3B
:1014E400C7070830B8000310BF0DC00DC10DC20DF1
:1014F400B80B752A3108A00034080A168A1554223C
:101504000A128A15831203132108C9002008C8008F
:101514004808B8004908B900BA01BB013808BF0738
:10152400390803110318013E0319992AC0073A0820
:1015340003110318013E0319A02AC1073B08031134
:101544000318013E0319A72AC2073008A000350872
:101554000A168A1554220A128A15831203132108C3
:10156400C9002008C8004808B8004908B900BA01F1
:10157400BB013808BF07390803110318013E0319DA
:10158400C42AC0073A0803110318013E0319CB2AE1
:10159400C1073B0803110318013E0319D22AC207ED
:1015A4000830B8000310BF0DC00DC10DC20DB80B3B
:1015B400D42A3008A00034080A168A1554220A12C4
:1015C4008A15831203132108C9002008C80048089B
:1015D400B8004908B900BA01BB013808BF07390887
:1015E40003110318013E0319F82AC0073A0803112E
:1015F4000318013E0319FF2AC1073B08031103180E
:10160400013E0319062BC2073108A00036080A164A
:101614008A1554220A128A15831203132108C90059
:101624002008C8004808B8004908B900BA01BB013D
:101634003808C407390803110318013E0319232B82
:10164400C5073A0803110318013E03192A2BC607DC
:101654003B0803110318013E0319312BC707320855
:10166400A00035080A168A1554220A128A15831214
:1016740003132108C9002008C8004808B800490815
:10168400B900BA01BB013808C407390803110318AB
:10169400013E03194E2BC5073A0803110318013EF6
:1016A4000319552BC6073B0803110318013E031900
:1016B4005C2BC7073208A00036080A168A15542284
:1016C4000A128A15831203132108C9002008C800CE
:1016D4004808B8004908B900BA01BB010830031032
:1016E400B80DB90DBA0DBB0DFF3E031D712B3808A3
:1016F400C407390803110318013E0319822BC507D7
:101704003A0803110318013E0319892BC6073B0845
:1017140003110318013E0319902BC7073F08B800B3
:101724004008B9004108BA004208BB001830031051
:10173400BB0CBA0CB90CB80CFF3E031D992B38082E
:10174400C407390803110318013E0319AA2BC5075E
:101754003A0803110318013E0319B12BC6073B08CD
:1017640003110318013E0319B82BC7070830B8004A
:101774000310BF0DC00DC10DC20DB80BBA2B430829
:101784003E07B800B901B90D3808823EC8003908CF
:101794000318013EFF3EC900EC2B0130B8000310D2
:1017A400C40DC50DC60DC70DB80BD12BC21FDB2B45
:1017B400DC2BDD2B44140130B8000310BF0DC00D29
:1017C400C10DC20DB80BDF2BFF30C8070318C90ABF
:1017D400FF30C907C61FEF2BF02BCF2BBE01C21F52
:1017E400F42BF52B112CFF303F05B800FF304005DA
:1017F400B900FF304105BA007F304205BB003B0809
:101804003A04390438040319082C092C0C2CBE01A1
:10181400BE0A112C441C0F2C102C112C092C3E0830
:101824000319152C162C472C0130C407003003185B
:101834000130C507003003180130C6070030031813
:101844000130C707471C272C282C472C4408B80014
:101854004508B9004608BA004708BB000130BC007F
:101864003B0DBB0CBA0CB90CB80CBC0B322C3B08AE
:10187400C7003A08C6003908C5003808C40001305A
:10188400C8070318C90A0030C9074908803AFF008D
:1018940080307F02031D502CFF304802031C532C60
:1018A400542C5F2C7F3083120313C7008030C60092
:1018B4000030C5000030C400902C83120313490883
:1018C400803AFF0080307F02031D6A2C01304802F9
:1018D40003186D2C6E2C7A2C003083120313C7006E
:1018E4000030C6000030C5000030C400BD01902C9B
:1018F400831203134808C300FF30C405FF30C50535
:101904007F30C6050030C705431C892C8A2C8B2CDC
:10191400C6174308B8000310380CC7003D08B800C8
:101924003808C7044708B3004608B2004508B100A8
:101934004408B000080083120313DC00DC1FA32C4E
:10194400A42C532EDC09DC0A5C08803A123E031CEA
:10195400AC2CAD2C972D0A30A7000030A8005C08F1
:10196400A200A301A21BA3036430A0000030A100C5
:101974000A168A152A250A128A15831203132108C6
:10198400AA002008A9000A168A1113200A128A152F
:10199400831203132708CE0001300310CE0DFF3E3F
:1019A400031DCF2C03104E0D593E84000A168A15D0
:1019B4000A200A128A15CF000A168A150A200A126A
:1019C4008A15D0000A168A150A200A128A15D1002F
:1019D4000A168A150A200A128A15D2005208B30080
:1019E4005108B2005008B1004F08B0006430A7009D
:1019F4000030A8005C08A900AA01A91BAA030A16C2
:101A04008A1113200A128A15831203132708D3009C
:101A140001300310D30DFF3E031D0B2D0310530D96
:101A24007D3E84000A168A150A200A128A15D400FB
:101A34000A168A150A200A128A15D5000A168A156A
:101A44000A200A128A15D6000A168A150A200A12D2
:101A54008A15D7005708B7005608B6005508B500D0
:101A64005408B4000A128A1558210A128A158312DE
:101A740003133308DB003208DA003108D9003008D8
:101A8400D8000A30A0000030A1005C08A200A30125
:101A9400A21BA3030A168A152A250A128A15831281
:101AA40003132008CE0001300310CE0DFF3E031DAA
:101AB400562D03104E0D353E84000A168A150A2051
:101AC4000A128A15CF000A168A150A200A128A15E4
:101AD400D0000A168A150A200A128A15D1000A169D
:101AE4008A150A200A128A15D2005208B300510836
:101AF400B2005008B1004F08B0005B08B7005A08A4
:101B0400B6005908B5005808B4000A128A155821BD
:101B14000A128A15831203133308CD003208CC004D
:101B24003108CB003008CA00FF2F5C08803A753EAC
:101B3400031C9D2D9E2D262E0A30A0000030A100EE
:101B44005C08A200A301A21BA3030A168A152A2576
:101B54000A128A15831203132008CE0001300310E1
:101B6400CE0DFF3E031DB12D03104E0D353E8400F6
:101B74000A168A150A200A128A15CF000A168A152F
:101B84000A200A128A15D0000A168A150A200A1297
:101B94008A15D1000A168A150A200A128A15D2005B
:101BA4005208B3005108B2005008B1004F08B00009
:101BB4000A30A7000030A8005C08A900AA01A91BEC
:101BC400AA030A168A1113200A128A158312031310
:101BD4002708D30001300310D30DFF3E031DED2D64
:101BE4000310530D593E84000A168A150A200A125E
:101BF4008A15D4000A168A150A200A128A15D500F5
:101C04000A168A150A200A128A15D6000A168A1597
:101C14000A200A128A15D7005708B7005608B600DA
:101C24005508B5005408B4000A128A1558210A123E
:101C34008A15831203133308CD003208CC0031080F
:101C4400CB003008CA00FF2F5C08CE00013003101F
:101C5400CE0DFF3E031D292E03104E0D353E84008C
:101C64000A168A150A200A128A15CF000A168A153E
:101C74000A200A128A15D0000A168A150A200A12A6
:101C84008A15D1000A168A150A200A128A15D2006A
:101C94005208CD005108CC005008CB004F08CA00B0
:101CA400FF2F5C08803A123E031C592E5A2E442FF3
:101CB4000A30A7000030A8005C08A200A301A21B00
:101CC400A3036430A0000030A1000A168A152A2557
:101CD4000A128A15831203132108AA002008A900F6
:101CE4000A168A1113200A128A158312031327086D
:101CF400CE0001300310CE0DFF3E031D7C2E0310D9
:101D04004E0D253E84000A168A150A200A128A15E9
:101D1400CF000A168A150A200A128A15D0000A165C
:101D24008A150A200A128A15D1000A168A150A2071
:101D34000A128A15D2005208B3005108B2005008A2
:101D4400B1004F08B0006430A7000030A8005C0860
:101D5400A900AA01A91BAA030A168A1113200A12B0
:101D64008A15831203132708D30001300310D30DFF
:101D7400FF3E031DB82E0310530D493E84000A167E
:101D84008A150A200A128A15D4000A168A150A200E
:101D94000A128A15D5000A168A150A200A128A150B
:101DA400D6000A168A150A200A128A15D70057087F
:101DB400B7005608B6005508B5005408B4000A1216
:101DC4008A1558210A128A15831203133308DB007B
:101DD4003208DA003108D9003008D8000A30A000EF
:101DE4000030A1005C08A200A301A21BA3030A16F1
:101DF4008A152A250A128A15831203132008CE0095
:101E040001300310CE0DFF3E031D032F03104E0DB2
:101E1400013E84000A168A150A200A128A15CF0088
:101E24000A168A150A200A128A15D0000A168A157B
:101E34000A200A128A15D1000A168A150A200A12E3
:101E44008A15D2005208B3005108B2005008B100FC
:101E54004F08B0005B08B7005A08B6005908B5002F
:101E64005808B4000A128A1558210A128A158312D6
:101E740003133308CD003208CC003108CB003008FE
:101E8400CA00FF2F5C08803A753E031C4A2F4B2F73
:101E9400D32F0A30A0000030A1005C08A200A301E7
:101EA400A21BA3030A168A152A250A128A1583126D
:101EB40003132008CE0001300310CE0DFF3E031D96
:101EC4005E2F03104E0D013E84000A168A150A2067
:101ED4000A128A15CF000A168A150A200A128A15D0
:101EE400D0000A168A150A200A128A15D1000A1689
:101EF4008A150A200A128A15D2005208B300510822
:101F0400B2005008B1004F08B0000A30A7000030FA
:101F1400A8005C08A900AA01A91BAA030A168A1131
:101F240013200A128A15831203132708D3000130E1
:101F34000310D30DFF3E031D9A2F0310530D253EAE
:101F440084000A168A150A200A128A15D4000A1671
:101F54008A150A200A128A15D5000A168A150A203B
:101F64000A128A15D6000A168A150A200A128A1538
:101F7400D7005708B7005608B6005508B5005408EE
:101F8400B4000A128A1558210A128A1583120313FF
:101F94003308CD003208CC003108CB003008CA0029
:101FA400FF2F5C08CE0001300310CE0DFF3E031D51
:101FB400D62F03104E0D013E84000A168A150A20FE
:101FC4000A128A15CF000A168A150A200A128A15DF
:101FD400D0000A168A150A200A128A15D1000A1698
:101FE4008A150A200A128A15D2005208CD00510817
:101FF400CC005008CB004F08CA000800831203131A
:10200400A000200888000800831203132308220478
:102014002104200403190F28102812288030A30655
:10202400080083120313AD01A81F19281A282128B8
:10203400A709A809A70A0319A80AAD01AD0AAA1F8E
:10204400242825282E28A909AA09A90A0319AA0AB5
:102054000130AB002B08AD06AE01AF012708280400
:102064000319352836286D28AC01AC0A4428013000
:102074000310A70DA80DFF3E031D3A280130AB0045
:102084002B08AC07A81F472848283928013003101B
:10209400AE0DAF0DFF3E031D492828082A02031D7B
:1020A400552827082902031C58285928602827087E
:1020B400A9022808031CAA03AA022E140130031043
:1020C400A80CA70CFF3E031D61280130AC02031DC0
:1020D4006C286D2848282D08031971287228772840
:1020E400AE09AF09AE0A0319AF0A2F08A8002E08DB
:1020F400A700080083120313A800280803198328E3
:1021040084289828A31F8728882898282009AA00AB
:102114002109AB002209AC002309AD00AA0A031966
:10212400AB0A0319AC0A0319AD0AA0282308AD00B1
:102134002208AC002108AB002008AA0023082204CE
:1021440021042004031DA728A828B1280030A300D7
:102154000030A2000030A1000030A00035299630E4
:10216400A900C1280130A4002408A90701300310E4
:10217400AD0CAC0CAB0CAA0CFF3E031DB928FE3011
:102184002D05031DC628C728B428E3280130A40060
:102194002408A9070130AA07003003180130AB074F
:1021A400003003180130AC07003003180130AD07CC
:1021B40001300310AD0CAC0CAB0CAA0CFF3E031D9C
:1021C400DB28FF302D05031DE828E928C828F52859
:1021D4000130A9020130A4000310AA0DAB0DAC0D0F
:1021E400AD0DA40BEE28AC1BF828F928FF2802300B
:1021F40029020318FE28FF28EA282918022903299E
:102204000B29FF30AA05FF30AB057F30AC05FF304A
:10221400AD050310A90C2908A400A501A601A70176
:1022240018300310A40DA50DA60DA70DFF3E031D28
:1022340013292408AA042508AB042608AC0427089B
:10224400AD0428080319272928292D29A31F2B2980
:102254002C292D29AD172D08A3002C08A2002B082A
:10226400A1002A08A0000800831203135108803932
:10227400DB005108D2005207E200D01F4229432953
:102284004429621462080319482949295929620A10
:10229400031D4D294E2956290030D1000030D000AD
:1022A4000030CF000030CE00D017D10161290030BA
:1022B400D1000030D0000030CF000030CE004D08F7
:1022C4008039D2005208DB064D08D2005207E300E1
:1022D400CC1F6D296E296F296314630803197329B0
:1022E40074298429630A031D7829792981290030F6
:1022F400CD000030CC000030CB000030CA00CC1739
:10230400CD018C290030CD000030CC000030CB0052
:102314000030CA004D084C044B044A04031D9329A1
:102324009429AD290030D1000030D0000030CF0016
:102334000030CE008030D0047F30D1045B08D2005E
:102344005208D1045108CD005008CC004F08CB00EE
:102354004E08CA00082B6208031DB129B229BB2903
:102364000030CD000030CC000030CB000030CA007B
:10237400082B6208D200D3015308D5006308520227
:10238400D400031CD50354087F3EDC005508031811
:10239400013E003EDD005108DA005008D9004F0824
:1023A400D8004E08D7000030D1000030D0000030F3
:1023B400CF000030CE000030E1000030E0000030FB
:1023C400DF000030DE00E301312A63080319EB2942
:1023D400EC290C2A0130D2000310D70DD80DD90DE9
:1023E400DA0DD20BEE290130D2000310CE0DCF0D41
:1023F400D00DD10DD20BF729E11F012A022A032A9D
:102404004E140130D2000310DE0DDF0DE00DE10D9E
:10241400D20B052A4D085A02031D1A2A4C085902E8
:10242400031D1A2A4B085802031D1A2A4A08570288
:10243400031C1D2A1E2A2D2A61174A08D7024B089D
:10244400031C4B0FD8024C08031C4C0FD9024D0837
:10245400031C4D0FDA020130D2005208E3071A3090
:102464006302031C362A372AE7295A0859045804F8
:10247400570403193E2A3F2A5E2A5E145E2A01305D
:10248400D2000310CE0DCF0DD00DD10DD20B432AA7
:10249400E11F4D2A4E2A4F2A4E140130D200031058
:1024A400DE0DDF0DE00DE10DD20B512AFF30DC070C
:1024B4000318DD0AFF30DD07D01F612A622A412A92
:1024C400E301E11F662A672A832AFF305E05D200F2
:1024D400FF305F05D300FF306005D4007F30610515
:1024E400D500550854045304520403197A2A7B2A4C
:1024F4007E2AE301E30A832A4E1C812A822A832A44
:102504007B2A63080319872A882AB92A0130CE074F
:10251400003003180130CF07003003180130D00712
:10252400003003180130D107511C992A9A2AB92A7C
:102534004E08D2004F08D3005008D4005108D500EB
:102544000130D600550DD50CD40CD30CD20CD60BBF
:10255400A42A5508D1005408D0005308CF005208CB
:10256400CE000130DC070318DD0A0030DD075D080A
:10257400803AFF0080307F02031DC22AFF305C02D4
:10258400031CC52AC62AD42AFF3083120313DC0095
:102594000030DD000030D1000030D0000030CF002A
:1025A4000030CE00831203135D08803AFF008030B0
:1025B4007F02031DDF2A01305C020318E22AE32AAA
:1025C400F02A83120313DC01DD010030D100003056
:1025D400D0000030CF000030CE00DB0183120313A3
:1025E4005C08E200621CF72AF82AFA2AD017FE2AAD
:1025F4007F30D2005208D0056208D2000310520C7A
:10260400D1005B08D2005208D104A4290800831227
:102614000313DD006E305D02031C112B122B212CE1
:102624003F30B3000030B2000030B1000030B000E1
:102634006430A6000030A7005D08CE00CF014E082C
:10264400A8004F08A9000A168A15FF220A168A1143
:10265400831203132608D00001300310D00DFF3E6F
:10266400031D2F2B0310500D7D3E84000A168A157E
:102674000A200A168A11D1000A168A150A200A1697
:102684008A11D2000A168A150A200A168A11D30062
:102694000A168A150A200A168A11D4005408B700AB
:1026A4005308B6005208B5005108B4000A128A153E
:1026B40058210A168A11831203133308DC003208E6
:1026C400DB003108DA003008D9000A30A6000030F7
:1026D400A7005D08CE00CF014E08A2004F08A3005A
:1026E4006430A0000030A1000A168A157D220A1663
:1026F4008A11831203132108A9002008A8000A16CE
:102704008A15FF220A168A11831203132608D000A1
:1027140001300310D00DFF3E031D8B2B0310500D11
:10272400593E84000A168A150A200A168A11D10015
:102734000A168A150A200A168A11D2000A168A1560
:102744000A200A168A11D3000A168A150A200A16C4
:102754008A11D4005408B3005308B2005208B100DF
:102764005108B0005C08B7005B08B6005A08B50011
:102774005908B4000A128A1558210A168A118312BC
:1027840003133308D8003208D7003108D6003008C4
:10279400D5000A30A0000030A1005D08CE00CF01B2
:1027A4004E08A2004F08A3000A168A157D220A16B5
:1027B4008A11831203132008D00001300310D00DB6
:1027C400FF3E031DE02B0310500D353E84000A1616
:1027D4008A150A200A168A11D1000A168A150A20B7
:1027E4000A168A11D2000A168A150A200A168A11B4
:1027F400D3000A168A150A200A168A11D40054082E
:10280400B3005308B2005208B1005108B000580890
:10281400B7005708B6005608B5005508B4000A12A8
:102824008A1558210A168A11831203133308CD001E
:102834003208CC003108CB003008CA00152D0B300B
:102844005D02031C262C272CD22C3F30B300003011
:10285400B2000030B1000030B0000A30A6000030F1
:10286400A7005D08CE00CF014E08A8004F08A900BC
:102874000A168A15FF220A168A11831203132608E0
:10288400D00001300310D00DFF3E031D442C031073
:10289400500D593E84000A168A150A200A168A1118
:1028A400D1000A168A150A200A168A11D2000A16BD
:1028B4008A150A200A168A11D3000A168A150A20D4
:1028C4000A168A11D4005408B7005308B6005208F7
:1028D400B5005108B4000A128A1558210A168A1143
:1028E400831203133308DC003208DB003108DA00FA
:1028F4003008D9000A30A0000030A1005D08CE00E5
:10290400CF014E08A2004F08A3000A168A157D22A3
:102914000A168A11831203132008D0000130031011
:10292400D00DFF3E031D912C0310500D353E840045
:102934000A168A150A200A168A11D1000A168A155F
:102944000A200A168A11D2000A168A150A200A16C3
:102954008A11D3000A168A150A200A168A11D4008D
:102964005408B3005308B2005208B1005108B00033
:102974005C08B7005B08B6005A08B5005908B400F3
:102984000A128A1558210A168A118312031333086E
:10299400CD003208CC003108CB003008CA00152D18
:1029A4003F30B3000030B2000030B1000030B0005E
:1029B4005D08CE0001300310CE0DFF3E031DDD2C5B
:1029C40003104E0D353E84000A168A150A200A1695
:1029D4008A11CF000A168A150A200A168A11D00015
:1029E4000A168A150A200A168A11D1000A168A15AF
:1029F4000A200A168A11D2005208B7005108B600FC
:102A04005008B5004F08B4000A128A1558210A1656
:102A14008A11831203133308CD003208CC00310825
:102A2400CB003008CA0008008312031367088039FA
:102A3400EC00670883160313A00020078312031316
:102A4400EE00E61F262D272D282D6E146E0803197F
:102A54002C2D2D2D3D2D6E0A031D312D322D3A2D99
:102A64000030E7000030E6000030E5000030E4000C
:102A7400E617E701452D0030E7000030E60000309E
:102A8400E5000030E4006B088039ED006D086C0649
:102A940003194D2D4E2D4F2D6C176B088316031300
:102AA400A000200783120313ED00EA1F5A2D5B2DAB
:102AB4005C2D6D146D080319602D612D712D6D0A47
:102AC400031D652D662D6E2D0030EB000030EA00ED
:102AD4000030E9000030E800EA17EB01792D0030FE
:102AE400EB000030EA000030E9000030E8006E0836
:102AF4006D0203187E2D7F2DA92D6C1F822D832D31
:102B04008B2D803083160313A00020088312031337
:102B1400EC066E08EF006D08EE006F08ED00640827
:102B2400EF006808E4006F08E8006508EF00690832
:102B3400E5006F08E9006608EF006A08E6006F0820
:102B4400EA006708EF006B08E7006F08EB00EF018D
:102B54006D0883160313A000A1012108A3008312AA
:102B640003136E08831603132002A200031CA3039D
:102B74002308803AFF0080307F02031DC32D1A30E2
:102B84002202031CC62DC72D0A2E831203136708C5
:102B9400660465046404031DD02DD22D0130D32DA9
:102BA4000030EF000030E7000030E6000030E500C0
:102BB4000030E4006D08EE00122E6F1CE22DE32DB0
:102BC400EE2D6F0883160313A0000310200C0138A8
:102BD40083120313EF00F02D0310EF0C641CF32D8C
:102BE400F42DF52DEF17013083160313A000831283
:102BF4000313670DE70CE60CE50CE40C83160313D2
:102C0400A00BF92D0130A000200883120313EE0756
:102C1400831203136D086E02031C112E122EDF2D76
:102C24006C1B152E162E6B2E6E08031D1A2E1B2ED2
:102C3400242E0030E7000030E6000030E5000030CC
:102C4400E400FF2F6808E407690803110318013E34
:102C540003192D2EE5076A0803110318013E031911
:102C6400342EE6076B0803110318013E03193B2EAB
:102C7400E707671C3E2E3F2E5F2F6F1C422E432E0C
:102C84004E2E6F0883160313A0000310200C013886
:102C940083120313EF00502E0310EF0C641C532E09
:102CA400542E552EEF17013083160313A000831200
:102CB4000313670DE70CE60CE50CE40C8316031311
:102CC400A00B592E0130A000200883120313EE0735
:102CD4005F2F6708803AFF006B08803A7F02031D6C
:102CE4007D2E6A086602031D7D2E69086502031D98
:102CF4007D2E680864020318802E812E112FFF3068
:102D040083160313A000FF30A100FF30A200FF30A0
:102D1400A30083120313680883160313A400831209
:102D24000313690883160313A500831203136A08A7
:102D340083160313A600831203136B08831603136D
:102D4400A70083120313640883160313A4028312D7
:102D540003136508031C650FB02EB32E83160313EB
:102D6400A502831203136608031C660FBA2EBD2E38
:102D740083160313A602831203136708031C670F49
:102D8400C42EC72E83160313A702831203138316BC
:102D940003132408A00725080318250FD22ED32EC9
:102DA400A10726080318260FD82ED92EA207270814
:102DB4000318270AA307230883120313E7008316C3
:102DC4000313220883120313E60083160313210856
:102DD40083120313E50083160313200883120313DD
:102DE400E400803083160313A00020088312031329
:102DF400EC06EF09EF0A6F08031D012F022F1F2FA6
:102E04000130E407003003180130E50700300318EF
:102E14000130E607003003180130E7071F2F680868
:102E2400E4026908031C690FE5026A08031C6A0FBF
:102E3400E6026B08031C6B0FE7026708660465046F
:102E44006404031D262F272F5B2F6F08031D2B2FD0
:102E54002C2F5B2F0030E7000030E6000030E50047
:102E64000030E400FF2F013083160313A000031089
:102E740083120313E40DE50DE60DE70D831603132A
:102E8400A00B392F83120313EF1F492F4A2F4B2F07
:102E940064146F1C4E2F4F2F522F0314EF0D542F19
:102EA4000310EF0D6E080319582F592F5B2F0130B3
:102EB400EE02E61F5E2F5F2F352FED01EF1F632F0C
:102EC400642F722F6F087F390319692F6A2F6D2FB2
:102ED400ED01ED0A722F641C702F712F722F6A2F6F
:102EE4006D080319762F772FCB2F0130E4070030BC
:102EF40003180130E507003003180130E6070030FD
:102F040003180130E707671C882F892FCB2F64082B
:102F140083160313A0008312031365088316031397
:102F2400A10083120313660883160313A2008312FD
:102F34000313670883160313A3000130A400230DB1
:102F4400A30CA20CA10CA00CA40BA12F2308831288
:102F54000313E70083160313220883120313E60006
:102F640083160313210883120313E5008316031346
:102F7400200883120313E4006E0A0319C22FC32F1F
:102F8400CB2F013083160313A000200883120313F0
:102F9400EE076E0A0319CF2FD02FD52F6E08031D0D
:102FA400D42FD52FE32F0030E7000030E6000030A7
:102FB400E5000030E4006E08031DE12FE22FE32F4B
:102FC400EC016E1CE62FE72FE92FE617F12F7F3077
:102FD40083160313A000200883120313E6056E086A
:102FE40083160313A0000310200C83120313E700BD
:102FF400EC1FFD2FFE2FFF2FE7170800FF1B0A28E9
:1030040083137F1883170008840A0319FF0A080032
:1030140018308A000408840A82070034003400341B
:1030240080343F34003400342034413400340034DC
:10303400C8344234003400347A34443400344034E4
:103044001C34463400345034C334473400342434FC
:10305400743449348034963418344B342034BC34BA
:10306400BE344C3428346B346E344E34F934023468
:1030740015345034EC347834AD346034CA34F2341A
:10308400493471340034003480343F34CD34CC348A
:10309400CC343D340A34D73423343C346F341234C2
:1030A40083343A341734B734D1343834AC34C53477
:1030B40027343734BD343734863435349534BF340B
:1030C400D63433347734CC342B3432345F347034E4
:1030D40089343034FF34E634DB342E340834E534B8
:1030E4003C341E3460344234A2340D340134003490
:1030F400003400340A3400340034003464340034BE
:1031040000340034E83403340034003410342734F9
:1031140000340034A0348634013400344034423462
:103124000F34003480349634983400340034E1345D
:10313400F53405340034CA349A343B3425342E34FF
:10314400323466340D340034563461346C346F34A4
:04315400723400349D
:1032E40064008001840A0406031900340406732967
:1032F40000300A168A15CE210A168A1501300A16DC
:103304008A15CE210A168A15080083120313A10018
:10331400A0013A30210203189029912999293030CB
:103324002102031C962997299929A001A00A200C9F
:103334000800831203130C1FA029A129AD290A1226
:103344008A1502200A168A157108F7007008F6001B
:10335400831203130C1375088A00740E8300FE0E87
:103364007E0E090083120313A3002308A20087160C
:1033740022080A168A1100200A168A1583120313DA
:103384000717193083120313A100A10BC729CA29F7
:10339400831203130713080083120313A300871275
:1033A40023080A168A1100200A168A1583120313A9
:1033B40007170B3083120313A2006130A100A10B85
:1033C400E129A20BE129E62983120313071308005C
:1033D400003083120313A000A1000A128A11C62729
:1033E4000A168A158316031708148901FF308316F9
:1033F4000313850086018801870183120313850165
:1034040086018701880189017030831603138F04B4
:10341400080083120313A5002503031D122A132A8F
:103424001D2A24087F3EA60026080A168A15CE21E6
:103434000A168A152C2A02302506031D222A232A5D
:103444002C2A2408BF3EA60026080A168A15CE2177
:103454000A168A15080083120313A401A501201C6F
:10346400342A352A3B2A2208A4070318A50A23086C
:10347400A50701300310A20DA30DFF3E031D3C2A36
:1034840001300310A10CA00CFF3E031D432A2008A9
:103494002104031D4E2A4F2A312A2508A10024089D
:1034A400A000080083120313A800A401A5012008AA
:1034B400A200A3012208A6002308A700281C632A4F
:1034C400642A6A2A2608A4070318A50A2708A50758
:1034D40001300310A60DA70DFF3E031D6B2A031038
:1034E400A80C2808031D772A782A602A2508A10039
:1034F4002408A000080083120313200821040319E0
:10350400842A852AB42AA501A50A932A0130031026
:10351400A00DA10DFF3E031D892A0130A40024083B
:10352400A507A11F962A972A882A21082302031D8A
:103534009D2A20082202031CA02AA12AA72A2008C7
:10354400A2022108031CA303A30201300310A10C4F
:10355400A00CFF3E031DA82A0130A502031DB32AB7
:10356400B42A972A2308A1002208A0000800831285
:103574000313A901AA01E22A29082407A7002508A0
:10358400A6000318A60AA91FC82AA60383120313B8
:103594002608A8002808FF00270884000A168A15B0
:1035A40000200A168A150A168A15B4210A168A15E5
:1035B400013083120313A9070318AA0A0030AA07CB
:1035C40029082407A7002508A6000318A60AA91F8E
:1035D400EC2AA603831203132608A8002808FF0078
:1035E400270884000A168A1500200A168A15003A4C
:1035F400031DFD2AFE2ABE2A080083120313AB0111
:10360400AC01260827040319082B092B402BAD0114
:10361400AD0A172B01300310A60DA70DFF3E031DA5
:103624000D2B0130AA002A08AD07A71F1A2B1B2B4C
:103634000C2B01300310AB0DAC0DFF3E031D1C2BF6
:1036440027082902031D282B26082802031C2B2BDC
:103654002C2B332B2608A8022708031CA903A90234
:103664002B1401300310A70CA60CFF3E031D342BB2
:103674000130AD02031D3F2B402B1B2B2C08A70050
:103684002B08A6000800831203131F141A30831694
:103694000313D400F730D300D30B4E2BD40B4E2B93
:1036A400532B831203139F14770883160313A90063
:1036B4007608A8000030AA00AB00FF30AC00003050
:1036C400AD000030AE00AF000530B0000030B100F6
:1036D4000A128A1584200A168A15831603132B08E6
:1036E400DA002A08D9002908D8002808D700913020
:1036F400B0005A08B4005908B3005808B20057087B
:10370400B100DB300A128A111E200A168A158312B0
:1037140003131F10080000300A168A1100200A162D
:103724008A15343083120313A500F130A400A40BCE
:10373400992BA50B992B30300A168A15CE210A161F
:103744008A150D3083120313A500FB30A400A40BCB
:10375400A92BA50BA92B30300A168A15CE210A16DF
:103764008A151D3083120313A5009030A400A40B06
:10377400B92BA50BB92B000030300A168A15CE21BF
:103784000A168A153C300A168A15CE210A168A159D
:103794000C300A168A15CE210A168A1501300A162B
:1037A4008A15CE210A168A1506300A168A15CE21E4
:1037B4000A168A1508000030831203132005A80096
:1037C40000302105A90080302205AA007F3023059E
:1037D400AB002B082A0429042804031DF22BF32B25
:1037E400FB2B0030A3000030A2000030A100003009
:1037F400A00000302405A80000302505A900803071
:103804002605AA007F302705AB002B082A042904CB
:103814002804031D0E2C0F2C172C0030A700003099
:10382400A6000030A5000030A40027082306031DCD
:10383400252C26082206031D252C25082106031DF8
:10384400252C240820060319282C292C2B2C0310A2
:103854002C2C03140800803083160313AB062F08A6
:1038640083120313E700831603132E088312031332
:10387400E600831603132D0883120313E500831651
:1038840003132C0883120313E400831603132B0879
:1038940083120313EB00831603132A088312031302
:1038A400EA0083160313290883120313E90083161D
:1038B4000313280883120313E8000A168A11162535
:1038C4000A168A1583120313670883160313AB00C1
:1038D40083120313660883160313AA0083120313C7
:1038E400650883160313A90083120313640883165F
:1038F4000313A800080083120313230822042104DD
:1039040020040319862C872CCA2CA901A90A972CF8
:103914000130A8000310A00DA10DA20DA30DA80B4A
:103924008C2C0130A8002808A907A31F9A2C9B2CD3
:103934008A2C23082702031DA92C22082602031D12
:10394400A92C21082502031DA92C20082402031CEC
:10395400AC2CAD2CBB2C2008A4022108031C210F85
:10396400A5022208031C220FA6022308031C230F0E
:10397400A70201300310A30CA20CA10CA00CFF3E63
:10398400031DBC2C0130A902031DC92CCA2C9B2C7D
:103994002708A3002608A2002508A1002408A000E7
:1039A40008000A168A15EA210A168A150A168A15C3
:1039B4008D230A168A150A168A157A210A168A157B
:1039C4000A168A1545230A168A15760883120313E4
:1039D4008600A401A40A01300A168A150B220A16CD
:1039E4008A15973083120313A4008030A5000A16A9
:1039F4008A15B9220A168A1583120313A401A40A8C
:103A040002300A168A150B220A168A15DB30831235
:103A14000313A4000030A5000A168A15B9220A1659
:103A24008A15831203139F18182D192DE22C0330C5
:103A340083160313D6009730D500D50B1F2DD60B54
:103A44001F2D831203139F14E22C0A128A110C28CF
:103A540083120313A601A31F302D312D382DA20983
:103A6400A309A20A0319A30AA601A60AA11F3B2DB2
:103A74003C2D412DA009A109A00A0319A10A20087F
:103A840021040319462D472D762DA501A50A552D90
:103A940001300310A00DA10DFF3E031D4B2D01307D
:103AA400A4002408A507A11F582D592D4A2D21082B
:103AB4002302031D5F2D20082202031C622D632DA7
:103AC400692D2008A2022108031CA303A3020130CC
:103AD4000310A10CA00CFF3E031D6A2D0130A502AA
:103AE400031D752D762D592D260803197A2D7B2D4E
:103AF400802DA209A309A20A0319A30A2308A1007D
:103B04002208A0000800003083120313AC00003028
:103B1400AB000030AA000030A900230822042104CD
:103B240020040319962D972DE42DAD01AD0AA72D80
:103B34000130A8000310A00DA10DA20DA30DA80B28
:103B44009C2D0130A8002808AD07A31FAA2DAB2D7A
:103B54009A2D0130A8000310A90DAA0DAB0DAC0DD0
:103B6400A80BAD2D23082702031DC22D220826020F
:103B7400031DC22D21082502031DC22D2008240285
:103B8400031CC52DC62DD52D2008A4022108031C15
:103B9400210FA5022208031C220FA6022308031CDE
:103BA400230FA702291401300310A30CA20CA10CAB
:103BB400A00CFF3E031DD62D0130AD02031DE32DE5
:103BC400E42DAB2D2C08A3002B08A2002A08A10089
:103BD4002908A00008000030831203132005A80060
:103BE40000302105A90080302205AA007F3023057A
:103BF400AB002B082A0429042804031D022E032EDB
:103C04000B2E0030A3000030A2000030A1000030D1
:103C1400A00000302405A80000302505A90080304C
:103C24002605AA007F302705AB002B082A042904A7
:103C34002804031D1E2E1F2E272E0030A70000303F
:103C4400A6000030A5000030A400A31F2A2E2B2EAE
:103C54004F2E0030A8000030A9000030AA008030A8
:103C6400AB002008A8022108031C210F3A2E3B2E8A
:103C7400A9022208031C220F402E412EAA02230867
:103C8400031C230F462E472EAB022B08A3002A0841
:103C9400A2002908A1002808A000A71F522E532E15
:103CA400772E0030A8000030A9000030AA00803030
:103CB400AB002408A8022508031C250F622E632EDE
:103CC400A9022608031C260F682E692EAA022708BB
:103CD400031C270F6E2E6F2EAB022B08A7002A0899
:103CE400A6002908A5002808A4008030A306803077
:103CF400A70627082302031D892E26082202031D76
:103D0400892E25082102031D892E24082002031868
:103D14008C2E8D2E8F2E0310902E031408008312E8
:103D240003132008A8002108A9002208AA000310F0
:103D3400290D2A0DB0003008031DA12EA22EAB2E92
:103D44000030A3000030A2000030A1000030A00029
:103D5400472F2408A8002508A9002608AA00031054
:103D6400290D2A0DAF002F08031DB92EBA2EBB2E24
:103D7400A22EA117FF30A005FF30A1050030A20537
:103D8400A517FF30A405FF30A5050030A6050030B7
:103D9400AE000030AD000030AC000030AB007F302E
:103DA400B00298302F07A8002808B0021830AF00DE
:103DB4000130A8000310AB0DAC0DAD0DAE0DA80B7A
:103DC400DC2E26082202031DED2E25082102031DE8
:103DD400ED2E24082002031CF02EF12EFC2E2408C4
:103DE400A0022508031C250FA1022608031C260A8D
:103DF400A2022B1401300310A00DA10DA20DFF3E51
:103E0400031DFD2E0130AF02031D092F0A2FDA2EE8
:103E1400B01F0D2F0E2F282F3008803A973E03181D
:103E2400142F152F162FA22E01300310AE0CAD0C3B
:103E3400AC0CAB0CFF3E031D172F0130A800280863
:103E4400B007031D262F272F162F3F2F18303002BF
:103E5400031C2D2F2E2F3A2FA22E0130A800031061
:103E6400AB0DAC0DAD0DAE0DA80B312F0130B00272
:103E74003008031D3E2F3F2F2F2F2E08A3002D089F
:103E8400A2002C08A1002B08A00008000310831234
:103E94000313220D230DAE002E08031D522F532FA2
:103EA4005C2F0030A3000030A2000030A1000030DD
:103EB400A000FF2F0310260D270DAD002D08031DB4
:103EC400642F652F662F532FA217FF30A005FF30F4
:103ED400A105FF30A2050030A305A617FF30A405F5
:103EE400FF30A505FF30A6050030A7050030AC0063
:103EF4000030AB000030AA000030A9007F30AE02D1
:103F0400A0302D07A8002808AE022030AD000130F3
:103F1400A8000310A90DAA0DAB0DAC0DA80B8B2F97
:103F240027082302031DA02F26082202031DA02F09
:103F340025082102031DA02F24082002031CA32FFF
:103F4400A42FB32F2408A0022508031C250FA102C7
:103F54002608031C260FA2022708031C270FA3020E
:103F640029140130A8000310A00DA10DA20DA30D6A
:103F7400A80BB52F0130AD02031DC12FC22F892F0D
:103F8400AE1FC52FC62FE02F2E08803A9F3E031880
:103F9400CC2FCD2FCE2F532F01300310AC0CAB0CF4
:103FA400AA0CA90CFF3E031DCF2F0130A80028083E
:103FB400AE07031DDE2FDF2FCE2FF72F20302E026A
:103FC400031CE52FE62FF22F532F0130A800031016
:103FD400A90DAA0DAB0DAC0DA80BE92F0130AE0253
:103FE4002E08031DF62FF72FE72F2C08A3002B080C
:103FF400A2002A08A1002908A0000800FF3FFF3FF3
:04400400FF3FFF3F3C
:04400E00D420FF3F7C
:00000001FF
